{
  "contractName": "MzDountStore",
  "abi": [
    {
      "inputs": [],
      "stateMutability": "nonpayable",
      "type": "constructor"
    },
    {
      "inputs": [
        {
          "internalType": "address",
          "name": "",
          "type": "address"
        }
      ],
      "name": "donutBalances",
      "outputs": [
        {
          "internalType": "uint256",
          "name": "",
          "type": "uint256"
        }
      ],
      "stateMutability": "view",
      "type": "function",
      "constant": true
    },
    {
      "inputs": [],
      "name": "owner",
      "outputs": [
        {
          "internalType": "address",
          "name": "",
          "type": "address"
        }
      ],
      "stateMutability": "view",
      "type": "function",
      "constant": true
    },
    {
      "inputs": [],
      "name": "getMachineDonutBalance",
      "outputs": [
        {
          "internalType": "uint256",
          "name": "",
          "type": "uint256"
        }
      ],
      "stateMutability": "view",
      "type": "function",
      "constant": true
    },
    {
      "inputs": [],
      "name": "getMachineEtherBalance",
      "outputs": [
        {
          "internalType": "uint256",
          "name": "",
          "type": "uint256"
        }
      ],
      "stateMutability": "view",
      "type": "function",
      "constant": true
    },
    {
      "inputs": [
        {
          "internalType": "uint256",
          "name": "_amount",
          "type": "uint256"
        }
      ],
      "name": "restockDonutBalance",
      "outputs": [],
      "stateMutability": "nonpayable",
      "type": "function"
    },
    {
      "inputs": [
        {
          "internalType": "address",
          "name": "_address",
          "type": "address"
        }
      ],
      "name": "getCustomerDonutBalance",
      "outputs": [
        {
          "internalType": "uint256",
          "name": "",
          "type": "uint256"
        }
      ],
      "stateMutability": "view",
      "type": "function",
      "constant": true
    },
    {
      "inputs": [
        {
          "internalType": "address",
          "name": "_address",
          "type": "address"
        }
      ],
      "name": "getCustomerEtherBalance",
      "outputs": [
        {
          "internalType": "uint256",
          "name": "",
          "type": "uint256"
        }
      ],
      "stateMutability": "view",
      "type": "function",
      "constant": true
    },
    {
      "inputs": [
        {
          "internalType": "uint256",
          "name": "_amount",
          "type": "uint256"
        }
      ],
      "name": "purchase",
      "outputs": [],
      "stateMutability": "payable",
      "type": "function",
      "payable": true
    }
  ],
  "bytecode": "0x608060405234801561001057600080fd5b50336000806101000a81548173ffffffffffffffffffffffffffffffffffffffff021916908373ffffffffffffffffffffffffffffffffffffffff1602179055506064600160003073ffffffffffffffffffffffffffffffffffffffff1673ffffffffffffffffffffffffffffffffffffffff16815260200190815260200160002081905550610b1f806100a56000396000f3fe60806040526004361061007b5760003560e01c80639a020d8a1161004e5780639a020d8a1461013c578063d4e5352614610179578063e629f893146101a4578063efef39a1146101e15761007b565b806313b6fa8914610080578063277e78bf146100ab5780633664d7fd146100d45780638da5cb5b14610111575b600080fd5b34801561008c57600080fd5b506100956101fd565b6040516100a29190610697565b60405180910390f35b3480156100b757600080fd5b506100d260048036038101906100cd91906106e3565b61023d565b005b3480156100e057600080fd5b506100fb60048036038101906100f6919061076e565b610324565b6040516101089190610697565b60405180910390f35b34801561011d57600080fd5b50610126610345565b60405161013391906107aa565b60405180910390f35b34801561014857600080fd5b50610163600480360381019061015e919061076e565b610369565b6040516101709190610697565b60405180910390f35b34801561018557600080fd5b5061018e610381565b60405161019b9190610697565b60405180910390f35b3480156101b057600080fd5b506101cb60048036038101906101c6919061076e565b6103c8565b6040516101d89190610697565b60405180910390f35b6101fb60048036038101906101f691906106e3565b610411565b005b60008060009054906101000a900473ffffffffffffffffffffffffffffffffffffffff1673ffffffffffffffffffffffffffffffffffffffff1631905090565b60008054906101000a900473ffffffffffffffffffffffffffffffffffffffff1673ffffffffffffffffffffffffffffffffffffffff163373ffffffffffffffffffffffffffffffffffffffff16146102cb576040517f08c379a00000000000000000000000000000000000000000000000000000000081526004016102c290610848565b60405180910390fd5b80600160003073ffffffffffffffffffffffffffffffffffffffff1673ffffffffffffffffffffffffffffffffffffffff168152602001908152602001600020600082825461031a9190610897565b9250508190555050565b60008173ffffffffffffffffffffffffffffffffffffffff16319050919050565b60008054906101000a900473ffffffffffffffffffffffffffffffffffffffff1681565b60016020528060005260406000206000915090505481565b6000600160003073ffffffffffffffffffffffffffffffffffffffff1673ffffffffffffffffffffffffffffffffffffffff16815260200190815260200160002054905090565b6000600160008373ffffffffffffffffffffffffffffffffffffffff1673ffffffffffffffffffffffffffffffffffffffff168152602001908152602001600020549050919050565b67016345785d8a00008161042591906108cb565b3373ffffffffffffffffffffffffffffffffffffffff1631101561047e576040517f08c379a000000000000000000000000000000000000000000000000000000000815260040161047590610997565b60405180910390fd5b67016345785d8a00008161049291906108cb565b34146104d3576040517f08c379a00000000000000000000000000000000000000000000000000000000081526004016104ca90610a03565b60405180910390fd5b80600160003073ffffffffffffffffffffffffffffffffffffffff1673ffffffffffffffffffffffffffffffffffffffff168152602001908152602001600020541015610555576040517f08c379a000000000000000000000000000000000000000000000000000000000815260040161054c90610a95565b60405180910390fd5b80600160003073ffffffffffffffffffffffffffffffffffffffff1673ffffffffffffffffffffffffffffffffffffffff16815260200190815260200160002060008282546105a49190610ab5565b9250508190555080600160003373ffffffffffffffffffffffffffffffffffffffff1673ffffffffffffffffffffffffffffffffffffffff16815260200190815260200160002060008282546105fa9190610897565b9250508190555060008054906101000a900473ffffffffffffffffffffffffffffffffffffffff1673ffffffffffffffffffffffffffffffffffffffff166108fc67016345785d8a00008361064f91906108cb565b9081150290604051600060405180830381858888f1935050505015801561067a573d6000803e3d6000fd5b5050565b6000819050919050565b6106918161067e565b82525050565b60006020820190506106ac6000830184610688565b92915050565b600080fd5b6106c08161067e565b81146106cb57600080fd5b50565b6000813590506106dd816106b7565b92915050565b6000602082840312156106f9576106f86106b2565b5b6000610707848285016106ce565b91505092915050565b600073ffffffffffffffffffffffffffffffffffffffff82169050919050565b600061073b82610710565b9050919050565b61074b81610730565b811461075657600080fd5b50565b60008135905061076881610742565b92915050565b600060208284031215610784576107836106b2565b5b600061079284828501610759565b91505092915050565b6107a481610730565b82525050565b60006020820190506107bf600083018461079b565b92915050565b600082825260208201905092915050565b7f6f6e6c7920746865206f776e65722063616e20726573746f636b20646f6e757460008201527f732074686973206d616368696e65000000000000000000000000000000000000602082015250565b6000610832602e836107c5565b915061083d826107d6565b604082019050919050565b6000602082019050818103600083015261086181610825565b9050919050565b7f4e487b7100000000000000000000000000000000000000000000000000000000600052601160045260246000fd5b60006108a28261067e565b91506108ad8361067e565b92508282019050808211156108c5576108c4610868565b5b92915050565b60006108d68261067e565b91506108e18361067e565b9250817fffffffffffffffffffffffffffffffffffffffffffffffffffffffffffffffff048311821515161561091a57610919610868565b5b828202905092915050565b7f596f75206d75737420686176652061206c6561737420302e312045746865722060008201527f70657220646f6e75740000000000000000000000000000000000000000000000602082015250565b60006109816029836107c5565b915061098c82610925565b604082019050919050565b600060208201905081810360008301526109b081610974565b9050919050565b7f596f75206d7573742070617920302e312045746865722070657220646f6e7574600082015250565b60006109ed6020836107c5565b91506109f8826109b7565b602082019050919050565b60006020820190508181036000830152610a1c816109e0565b9050919050565b7f6e6f7420656e6f75676820646f6e75747320696e2073746f636b20746f20667560008201527f6c66696c6c207075726368617365207265717565737400000000000000000000602082015250565b6000610a7f6036836107c5565b9150610a8a82610a23565b604082019050919050565b60006020820190508181036000830152610aae81610a72565b9050919050565b6000610ac08261067e565b9150610acb8361067e565b9250828203905081811115610ae357610ae2610868565b5b9291505056fea264697066735822122064933f9b708e3c392d68f9587d7faee6e1ea504cacd0496cb0b2fa88363bbcfb64736f6c63430008100033",
  "immutableReferences": {},
  "source": "// SPDX-License-Identifier: MIT\npragma solidity >=0.7.0 <0.9.0;\n\ncontract MzDountStore {\n    address public owner;\n    mapping(address => uint) public donutBalances;\n\n    constructor() {\n        owner  = msg.sender;\n        donutBalances[address(this)] = 100;\n    }\n\n    function getMachineDonutBalance() public view returns(uint) {\n        return donutBalances[address(this)]; \n    }\n    function getMachineEtherBalance() public view returns(uint) {\n        return owner.balance;\n    }\n    function restockDonutBalance(uint _amount) public {\n        require(msg.sender == owner, \"only the owner can restock donuts this machine\");\n        donutBalances[address(this)] += _amount;\n    }\n    \n    function getCustomerDonutBalance(address _address) public view returns(uint) {\n        return donutBalances[_address]; \n    }\n    function getCustomerEtherBalance(address _address) public view returns(uint) {\n        return (_address.balance);\n    }\n\n    function purchase(uint _amount) public payable {\n        require(msg.sender.balance >= _amount * 0.1 ether, \"You must have a least 0.1 Ether per donut\");\n        require(msg.value == _amount * 0.1 ether, \"You must pay 0.1 Ether per donut\");\n        require(donutBalances[address(this)] >= _amount, \"not enough donuts in stock to fulfill purchase request\");\n\n        donutBalances[address(this)] -= _amount;\n        donutBalances[msg.sender] += _amount;\n        payable (owner).transfer(_amount * 0.1 ether);\n    }\n}",
  "sourcePath": "/Users/azerc/Desktop/BLOCKCHAIN/BLOCK_EXPLORER/mz-donuts-contract/contracts/MzDonutStore.sol",
  "compiler": {
    "name": "solc",
    "version": "0.8.16+commit.07a7930e.Emscripten.clang"
  },
  "schemaVersion": "3.4.9",
  "updatedAt": "2022-10-01T12:33:04.053Z",
  "networkType": "ethereum",
  "devdoc": {
    "kind": "dev",
    "methods": {},
    "version": 1
  },
  "userdoc": {
    "kind": "user",
    "methods": {},
    "version": 1
  }
}